{
  "_format": "hh-sol-artifact-1",
  "contractName": "beastGame",
  "sourceName": "contracts/game.sol",
  "abi": [
    {
      "inputs": [],
      "stateMutability": "nonpayable",
      "type": "constructor"
    },
    {
      "anonymous": false,
      "inputs": [
        {
          "indexed": false,
          "internalType": "address",
          "name": "endereco",
          "type": "address"
        },
        {
          "indexed": false,
          "internalType": "string",
          "name": "numero",
          "type": "string"
        },
        {
          "indexed": false,
          "internalType": "uint32",
          "name": "concurso",
          "type": "uint32"
        }
      ],
      "name": "returnPlayGame",
      "type": "event"
    },
    {
      "inputs": [
        {
          "internalType": "uint32",
          "name": "_concurso",
          "type": "uint32"
        },
        {
          "internalType": "string[]",
          "name": "_number",
          "type": "string[]"
        }
      ],
      "name": "geraConcurso",
      "outputs": [],
      "stateMutability": "nonpayable",
      "type": "function"
    },
    {
      "inputs": [
        {
          "internalType": "uint32",
          "name": "_concurso",
          "type": "uint32"
        }
      ],
      "name": "getAllApostas",
      "outputs": [
        {
          "components": [
            {
              "internalType": "address",
              "name": "apostador",
              "type": "address"
            },
            {
              "internalType": "string",
              "name": "number",
              "type": "string"
            },
            {
              "internalType": "uint32",
              "name": "concursoAposta",
              "type": "uint32"
            },
            {
              "internalType": "bool",
              "name": "venceu",
              "type": "bool"
            },
            {
              "internalType": "uint32",
              "name": "valorPremio",
              "type": "uint32"
            },
            {
              "internalType": "string",
              "name": "mensagem",
              "type": "string"
            }
          ],
          "internalType": "struct beastGame.Aposta[]",
          "name": "",
          "type": "tuple[]"
        }
      ],
      "stateMutability": "view",
      "type": "function"
    },
    {
      "inputs": [
        {
          "internalType": "uint32",
          "name": "_concurso",
          "type": "uint32"
        }
      ],
      "name": "getNumerosSorteadosConcurso",
      "outputs": [
        {
          "internalType": "string[]",
          "name": "",
          "type": "string[]"
        }
      ],
      "stateMutability": "view",
      "type": "function"
    },
    {
      "inputs": [
        {
          "internalType": "address",
          "name": "_address",
          "type": "address"
        },
        {
          "internalType": "string",
          "name": "_number",
          "type": "string"
        }
      ],
      "name": "setPlay",
      "outputs": [],
      "stateMutability": "nonpayable",
      "type": "function"
    },
    {
      "inputs": [
        {
          "internalType": "uint32",
          "name": "_concurso",
          "type": "uint32"
        }
      ],
      "name": "sorteioConcurso",
      "outputs": [],
      "stateMutability": "nonpayable",
      "type": "function"
    }
  ],
  "bytecode": "0x60806040523480156200001157600080fd5b506200004160405180606001604052806022815260200162001f89602291396200021860201b62000c0b1760201c565b336000806101000a81548173ffffffffffffffffffffffffffffffffffffffff021916908373ffffffffffffffffffffffffffffffffffffffff1602179055506040518060a00160405280600160ff168152602001600260ff168152602001600360ff168152602001600460ff168152602001600560ff168152506001906005620000ce929190620002e4565b506040518060a001604052806040518060400160405280601981526020017f56656e636575206e6f207072696d6569726f207072656d696f0000000000000081525081526020016040518060400160405280601881526020017f56656e636575206e6f20736567756e646f207072656d696f000000000000000081525081526020016040518060400160405280601981526020017f56656e636575206e6f20746572636569726f207072656d696f0000000000000081525081526020016040518060400160405280601781526020017f56656e636575206e6f2071756172746f207072656d696f00000000000000000081525081526020016040518060400160405280601781526020017f56656e636575206e6f207175696e746f207072656d696f00000000000000000081525081525060029060056200021192919062000398565b506200064a565b620002b8816040516024016200022f91906200055e565b6040516020818303038152906040527f41304fac000000000000000000000000000000000000000000000000000000007bffffffffffffffffffffffffffffffffffffffffffffffffffffffff19166020820180517bffffffffffffffffffffffffffffffffffffffffffffffffffffffff8381831617835250505050620002bb60201b60201c565b50565b60008151905060006a636f6e736f6c652e6c6f679050602083016000808483855afa5050505050565b82805482825590600052602060002090600701600890048101928215620003855791602002820160005b838211156200035157835183826101000a81548163ffffffff021916908360ff16021790555092602001926004016020816003010492830192600103026200030e565b8015620003835782816101000a81549063ffffffff021916905560040160208160030104928301926001030262000351565b505b509050620003949190620003ff565b5090565b828054828255906000526020600020908101928215620003ec579160200282015b82811115620003eb578251829080519060200190620003da9291906200041e565b5091602001919060010190620003b9565b5b509050620003fb9190620004af565b5090565b5b808211156200041a57600081600090555060010162000400565b5090565b8280546200042c90620005d4565b90600052602060002090601f0160209004810192826200045057600085556200049c565b82601f106200046b57805160ff19168380011785556200049c565b828001600101855582156200049c579182015b828111156200049b5782518255916020019190600101906200047e565b5b509050620004ab9190620003ff565b5090565b5b80821115620004d35760008181620004c99190620004d7565b50600101620004b0565b5090565b508054620004e590620005d4565b6000825580601f10620004f957506200051a565b601f016020900490600052602060002090810190620005199190620003ff565b5b50565b60006200052a8262000582565b6200053681856200058d565b9350620005488185602086016200059e565b620005538162000639565b840191505092915050565b600060208201905081810360008301526200057a81846200051d565b905092915050565b600081519050919050565b600082825260208201905092915050565b60005b83811015620005be578082015181840152602081019050620005a1565b83811115620005ce576000848401525b50505050565b60006002820490506001821680620005ed57607f821691505b602082108114156200060457620006036200060a565b5b50919050565b7f4e487b7100000000000000000000000000000000000000000000000000000000600052602260045260246000fd5b6000601f19601f8301169050919050565b61192f806200065a6000396000f3fe608060405234801561001057600080fd5b50600436106100575760003560e01c806303930ffd1461005c578063066eea491461008c5780631c34fdb0146100bc5780633bb56950146100d8578063cc13aa4e146100f4575b600080fd5b61007660048036038101906100719190611057565b610110565b6040516100839190611459565b60405180910390f35b6100a660048036038101906100a19190611057565b610377565b6040516100b39190611437565b60405180910390f35b6100d660048036038101906100d19190611057565b610477565b005b6100f260048036038101906100ed9190611003565b610955565b005b61010e60048036038101906101099190611080565b610b3d565b005b606060006104d29050600460008263ffffffff1663ffffffff168152602001908152602001600020805480602002602001604051908101604052809291908181526020016000905b8282101561036b57838290600052602060002090600402016040518060c00160405290816000820160009054906101000a900473ffffffffffffffffffffffffffffffffffffffff1673ffffffffffffffffffffffffffffffffffffffff1673ffffffffffffffffffffffffffffffffffffffff1681526020016001820180546101e190611700565b80601f016020809104026020016040519081016040528092919081815260200182805461020d90611700565b801561025a5780601f1061022f5761010080835404028352916020019161025a565b820191906000526020600020905b81548152906001019060200180831161023d57829003601f168201915b505050505081526020016002820160009054906101000a900463ffffffff1663ffffffff1663ffffffff1681526020016002820160049054906101000a900460ff161515151581526020016002820160059054906101000a900463ffffffff1663ffffffff1663ffffffff1681526020016003820180546102da90611700565b80601f016020809104026020016040519081016040528092919081815260200182805461030690611700565b80156103535780601f1061032857610100808354040283529160200191610353565b820191906000526020600020905b81548152906001019060200180831161033657829003601f168201915b50505050508152505081526020019060010190610158565b50505050915050919050565b606060006104d29050600360008263ffffffff1663ffffffff168152602001908152602001600020805480602002602001604051908101604052809291908181526020016000905b8282101561046b5783829060005260206000200180546103de90611700565b80601f016020809104026020016040519081016040528092919081815260200182805461040a90611700565b80156104575780601f1061042c57610100808354040283529160200191610457565b820191906000526020600020905b81548152906001019060200180831161043a57829003601f168201915b5050505050815260200190600101906103bf565b50505050915050919050565b60008054906101000a900473ffffffffffffffffffffffffffffffffffffffff1673ffffffffffffffffffffffffffffffffffffffff163373ffffffffffffffffffffffffffffffffffffffff1614610505576040517f08c379a00000000000000000000000000000000000000000000000000000000081526004016104fc906114bf565b60405180910390fd5b60001515600560008363ffffffff1663ffffffff16815260200190815260200160002060009054906101000a900460ff16151514610578576040517f08c379a000000000000000000000000000000000000000000000000000000000815260040161056f906114df565b60405180910390fd5b600061058382610377565b905060006104d290506000600460008363ffffffff1663ffffffff1681526020019081526020016000208054905011156109505760005b600460008363ffffffff1663ffffffff1681526020019081526020016000208054905081101561094e5760005b835181101561093a57838181518110610629577f4e487b7100000000000000000000000000000000000000000000000000000000600052603260045260246000fd5b6020026020010151604051602001610641919061147b565b60405160208183030381529060405280519060200120600460008563ffffffff1663ffffffff16815260200190815260200160002083815481106106ae577f4e487b7100000000000000000000000000000000000000000000000000000000600052603260045260246000fd5b90600052602060002090600402016001016040516020016106cf919061149d565b604051602081830303815290604052805190602001201415610927576001600460008563ffffffff1663ffffffff1681526020019081526020016000208381548110610744577f4e487b7100000000000000000000000000000000000000000000000000000000600052603260045260246000fd5b906000526020600020906004020160020160046101000a81548160ff021916908315150217905550600181815481106107a6577f4e487b7100000000000000000000000000000000000000000000000000000000600052603260045260246000fd5b90600052602060002090600891828204019190066004029054906101000a900463ffffffff1660326107d89190611635565b600460008563ffffffff1663ffffffff168152602001908152602001600020838154811061082f577f4e487b7100000000000000000000000000000000000000000000000000000000600052603260045260246000fd5b906000526020600020906004020160020160056101000a81548163ffffffff021916908363ffffffff16021790555060028181548110610898577f4e487b7100000000000000000000000000000000000000000000000000000000600052603260045260246000fd5b90600052602060002001600460008563ffffffff1663ffffffff16815260200190815260200160002083815481106108f9577f4e487b7100000000000000000000000000000000000000000000000000000000600052603260045260246000fd5b906000526020600020906004020160030190805461091690611700565b610921929190610ccd565b5061093a565b808061093290611763565b9150506105e7565b50808061094690611763565b9150506105ba565b505b505050565b60006104d2905060006040518060c001604052808573ffffffffffffffffffffffffffffffffffffffff1681526020018481526020018363ffffffff168152602001600015158152602001600063ffffffff168152602001604051806020016040528060008152508152509050600460008363ffffffff1663ffffffff16815260200190815260200160002081908060018154018082558091505060019003906000526020600020906004020160009091909190915060008201518160000160006101000a81548173ffffffffffffffffffffffffffffffffffffffff021916908373ffffffffffffffffffffffffffffffffffffffff1602179055506020820151816001019080519060200190610a6e929190610d5a565b5060408201518160020160006101000a81548163ffffffff021916908363ffffffff16021790555060608201518160020160046101000a81548160ff02191690831515021790555060808201518160020160056101000a81548163ffffffff021916908363ffffffff16021790555060a0820151816003019080519060200190610af9929190610d5a565b5050507fc2749ec4ba309dbb27ae6859b39beaf722584929af5633a96ca5fd264738e147848484604051610b2f939291906113f9565b60405180910390a150505050565b60008054906101000a900473ffffffffffffffffffffffffffffffffffffffff1673ffffffffffffffffffffffffffffffffffffffff163373ffffffffffffffffffffffffffffffffffffffff1614610bcb576040517f08c379a0000000000000000000000000000000000000000000000000000000008152600401610bc2906114bf565b60405180910390fd5b60006104d2905081600360008363ffffffff1663ffffffff1681526020019081526020016000209080519060200190610c05929190610de0565b50505050565b610ca181604051602401610c1f919061147b565b6040516020818303038152906040527f41304fac000000000000000000000000000000000000000000000000000000007bffffffffffffffffffffffffffffffffffffffffffffffffffffffff19166020820180517bffffffffffffffffffffffffffffffffffffffffffffffffffffffff8381831617835250505050610ca4565b50565b60008151905060006a636f6e736f6c652e6c6f679050602083016000808483855afa5050505050565b828054610cd990611700565b90600052602060002090601f016020900481019282610cfb5760008555610d49565b82601f10610d0c5780548555610d49565b82800160010185558215610d4957600052602060002091601f016020900482015b82811115610d48578254825591600101919060010190610d2d565b5b509050610d569190610e40565b5090565b828054610d6690611700565b90600052602060002090601f016020900481019282610d885760008555610dcf565b82601f10610da157805160ff1916838001178555610dcf565b82800160010185558215610dcf579182015b82811115610dce578251825591602001919060010190610db3565b5b509050610ddc9190610e40565b5090565b828054828255906000526020600020908101928215610e2f579160200282015b82811115610e2e578251829080519060200190610e1e929190610d5a565b5091602001919060010190610e00565b5b509050610e3c9190610e5d565b5090565b5b80821115610e59576000816000905550600101610e41565b5090565b5b80821115610e7d5760008181610e749190610e81565b50600101610e5e565b5090565b508054610e8d90611700565b6000825580601f10610e9f5750610ebe565b601f016020900490600052602060002090810190610ebd9190610e40565b5b50565b6000610ed4610ecf84611524565b6114ff565b90508083825260208201905082856020860282011115610ef357600080fd5b60005b85811015610f3d57813567ffffffffffffffff811115610f1557600080fd5b808601610f228982610fc4565b85526020850194506020840193505050600181019050610ef6565b5050509392505050565b6000610f5a610f5584611550565b6114ff565b905082815260208101848484011115610f7257600080fd5b610f7d8482856116be565b509392505050565b600081359050610f94816118cb565b92915050565b600082601f830112610fab57600080fd5b8135610fbb848260208601610ec1565b91505092915050565b600082601f830112610fd557600080fd5b8135610fe5848260208601610f47565b91505092915050565b600081359050610ffd816118e2565b92915050565b6000806040838503121561101657600080fd5b600061102485828601610f85565b925050602083013567ffffffffffffffff81111561104157600080fd5b61104d85828601610fc4565b9150509250929050565b60006020828403121561106957600080fd5b600061107784828501610fee565b91505092915050565b6000806040838503121561109357600080fd5b60006110a185828601610fee565b925050602083013567ffffffffffffffff8111156110be57600080fd5b6110ca85828601610f9a565b9150509250929050565b60006110e08383611213565b905092915050565b60006110f4838361134b565b905092915050565b61110581611666565b82525050565b61111481611666565b82525050565b6000611125826115b6565b61112f81856115f1565b93508360208202850161114185611581565b8060005b8581101561117d578484038952815161115e85826110d4565b9450611169836115d7565b925060208a01995050600181019050611145565b50829750879550505050505092915050565b600061119a826115c1565b6111a48185611602565b9350836020820285016111b685611591565b8060005b858110156111f257848403895281516111d385826110e8565b94506111de836115e4565b925060208a019950506001810190506111ba565b50829750879550505050505092915050565b61120d81611678565b82525050565b600061121e826115cc565b6112288185611613565b93506112388185602086016116cd565b61124181611868565b840191505092915050565b6000611257826115cc565b6112618185611624565b93506112718185602086016116cd565b61127a81611868565b840191505092915050565b6000815461129281611700565b61129c8186611624565b945060018216600081146112b757600181146112c9576112fc565b60ff19831686526020860193506112fc565b6112d2856115a1565b60005b838110156112f4578154818901526001820191506020810190506112d5565b808801955050505b50505092915050565b6000611312600d83611624565b915061131d82611879565b602082019050919050565b6000611335601883611624565b9150611340826118a2565b602082019050919050565b600060c08301600083015161136360008601826110fc565b506020830151848203602086015261137b8282611213565b915050604083015161139060408601826113db565b5060608301516113a36060860182611204565b5060808301516113b660808601826113db565b5060a083015184820360a08601526113ce8282611213565b9150508091505092915050565b6113e4816116ae565b82525050565b6113f3816116ae565b82525050565b600060608201905061140e600083018661110b565b8181036020830152611420818561124c565b905061142f60408301846113ea565b949350505050565b60006020820190508181036000830152611451818461111a565b905092915050565b60006020820190508181036000830152611473818461118f565b905092915050565b60006020820190508181036000830152611495818461124c565b905092915050565b600060208201905081810360008301526114b78184611285565b905092915050565b600060208201905081810360008301526114d881611305565b9050919050565b600060208201905081810360008301526114f881611328565b9050919050565b600061150961151a565b90506115158282611732565b919050565b6000604051905090565b600067ffffffffffffffff82111561153f5761153e611839565b5b602082029050602081019050919050565b600067ffffffffffffffff82111561156b5761156a611839565b5b61157482611868565b9050602081019050919050565b6000819050602082019050919050565b6000819050602082019050919050565b60008190508160005260206000209050919050565b600081519050919050565b600081519050919050565b600081519050919050565b6000602082019050919050565b6000602082019050919050565b600082825260208201905092915050565b600082825260208201905092915050565b600082825260208201905092915050565b600082825260208201905092915050565b6000611640826116ae565b915061164b836116ae565b92508261165b5761165a6117db565b5b828204905092915050565b600061167182611684565b9050919050565b60008115159050919050565b600073ffffffffffffffffffffffffffffffffffffffff82169050919050565b6000819050919050565b600063ffffffff82169050919050565b82818337600083830152505050565b60005b838110156116eb5780820151818401526020810190506116d0565b838111156116fa576000848401525b50505050565b6000600282049050600182168061171857607f821691505b6020821081141561172c5761172b61180a565b5b50919050565b61173b82611868565b810181811067ffffffffffffffff8211171561175a57611759611839565b5b80604052505050565b600061176e826116a4565b91507fffffffffffffffffffffffffffffffffffffffffffffffffffffffffffffffff8214156117a1576117a06117ac565b5b600182019050919050565b7f4e487b7100000000000000000000000000000000000000000000000000000000600052601160045260246000fd5b7f4e487b7100000000000000000000000000000000000000000000000000000000600052601260045260246000fd5b7f4e487b7100000000000000000000000000000000000000000000000000000000600052602260045260246000fd5b7f4e487b7100000000000000000000000000000000000000000000000000000000600052604160045260246000fd5b6000601f19601f8301169050919050565b7f41636573736f206e656761646f00000000000000000000000000000000000000600082015250565b7f4573746520636f6e637572736f206a61206f636f727265750000000000000000600082015250565b6118d481611666565b81146118df57600080fd5b50565b6118eb816116ae565b81146118f657600080fd5b5056fea2646970667358221220912e344db273005ced2a50a2f6b3a0ed64c3714f5dbd56b18aae3f768c6fb26e64736f6c63430008040033436f6e747261746f20696e696369616c697a61646f20636f6d207375636573736f21",
  "linkReferences": {},
  "deployedLinkReferences": {}
}