{
  "_format": "hh-sol-artifact-1",
  "contractName": "beastGame",
  "sourceName": "contracts/game.sol",
  "abi": [
    {
      "inputs": [],
      "stateMutability": "nonpayable",
      "type": "constructor"
    },
    {
      "inputs": [
        {
          "internalType": "uint32",
          "name": "",
          "type": "uint32"
        },
        {
          "internalType": "uint256",
          "name": "",
          "type": "uint256"
        }
      ],
      "name": "Apostas",
      "outputs": [
        {
          "internalType": "address",
          "name": "apostador",
          "type": "address"
        },
        {
          "internalType": "string",
          "name": "number",
          "type": "string"
        },
        {
          "internalType": "uint32",
          "name": "concursoAposta",
          "type": "uint32"
        }
      ],
      "stateMutability": "view",
      "type": "function"
    },
    {
      "inputs": [],
      "name": "getAllPlay",
      "outputs": [
        {
          "components": [
            {
              "internalType": "address",
              "name": "apostador",
              "type": "address"
            },
            {
              "internalType": "string",
              "name": "number",
              "type": "string"
            },
            {
              "internalType": "uint32",
              "name": "concursoAposta",
              "type": "uint32"
            }
          ],
          "internalType": "struct beastGame.Aposta[]",
          "name": "",
          "type": "tuple[]"
        }
      ],
      "stateMutability": "view",
      "type": "function"
    },
    {
      "inputs": [
        {
          "internalType": "address",
          "name": "_address",
          "type": "address"
        },
        {
          "internalType": "string",
          "name": "_number",
          "type": "string"
        }
      ],
      "name": "setPlay",
      "outputs": [],
      "stateMutability": "nonpayable",
      "type": "function"
    }
  ],
  "bytecode": "0x60806040523480156200001157600080fd5b506200004160405180606001604052806022815260200162000fbe602291396200004760201b6200044f1760201c565b620001db565b620000e7816040516024016200005e919062000154565b6040516020818303038152906040527f41304fac000000000000000000000000000000000000000000000000000000007bffffffffffffffffffffffffffffffffffffffffffffffffffffffff19166020820180517bffffffffffffffffffffffffffffffffffffffffffffffffffffffff8381831617835250505050620000ea60201b60201c565b50565b60008151905060006a636f6e736f6c652e6c6f679050602083016000808483855afa5050505050565b6000620001208262000178565b6200012c818562000183565b93506200013e81856020860162000194565b6200014981620001ca565b840191505092915050565b6000602082019050818103600083015262000170818462000113565b905092915050565b600081519050919050565b600082825260208201905092915050565b60005b83811015620001b457808201518184015260208101905062000197565b83811115620001c4576000848401525b50505050565b6000601f19601f8301169050919050565b610dd380620001eb6000396000f3fe608060405234801561001057600080fd5b50600436106100415760003560e01c80633bb56950146100465780634141822614610062578063bb95d7e814610080575b600080fd5b610060600480360381019061005b91906108a3565b6100b2565b005b61006a6101e3565b6040516100779190610af8565b60405180910390f35b61009a600480360381019061009591906108f7565b610350565b6040516100a993929190610aba565b60405180910390f35b60006104d29050600060405180606001604052808573ffffffffffffffffffffffffffffffffffffffff1681526020018481526020018363ffffffff168152509050600081908060018154018082558091505060019003906000526020600020906003020160009091909190915060008201518160000160006101000a81548173ffffffffffffffffffffffffffffffffffffffff021916908373ffffffffffffffffffffffffffffffffffffffff1602179055506020820151816001019080519060200190610183929190610511565b5060408201518160020160006101000a81548163ffffffff021916908363ffffffff16021790555050506000600160008463ffffffff1663ffffffff1681526020019081526020016000209080546101dc929190610597565b5050505050565b60606000805480602002602001604051908101604052809291908181526020016000905b8282101561034757838290600052602060002090600302016040518060600160405290816000820160009054906101000a900473ffffffffffffffffffffffffffffffffffffffff1673ffffffffffffffffffffffffffffffffffffffff1673ffffffffffffffffffffffffffffffffffffffff16815260200160018201805461029090610c86565b80601f01602080910402602001604051908101604052809291908181526020018280546102bc90610c86565b80156103095780601f106102de57610100808354040283529160200191610309565b820191906000526020600020905b8154815290600101906020018083116102ec57829003601f168201915b505050505081526020016002820160009054906101000a900463ffffffff1663ffffffff1663ffffffff168152505081526020019060010190610207565b50505050905090565b6001602052816000526040600020818154811061036c57600080fd5b9060005260206000209060030201600091509150508060000160009054906101000a900473ffffffffffffffffffffffffffffffffffffffff16908060010180546103b690610c86565b80601f01602080910402602001604051908101604052809291908181526020018280546103e290610c86565b801561042f5780601f106104045761010080835404028352916020019161042f565b820191906000526020600020905b81548152906001019060200180831161041257829003601f168201915b5050505050908060020160009054906101000a900463ffffffff16905083565b6104e5816040516024016104639190610b1a565b6040516020818303038152906040527f41304fac000000000000000000000000000000000000000000000000000000007bffffffffffffffffffffffffffffffffffffffffffffffffffffffff19166020820180517bffffffffffffffffffffffffffffffffffffffffffffffffffffffff83818316178352505050506104e8565b50565b60008151905060006a636f6e736f6c652e6c6f679050602083016000808483855afa5050505050565b82805461051d90610c86565b90600052602060002090601f01602090048101928261053f5760008555610586565b82601f1061055857805160ff1916838001178555610586565b82800160010185558215610586579182015b8281111561058557825182559160200191906001019061056a565b5b50905061059391906106ad565b5090565b82805482825590600052602060002090600302810192821561069c5760005260206000209160030282015b8281111561069b5782826000820160009054906101000a900473ffffffffffffffffffffffffffffffffffffffff168160000160006101000a81548173ffffffffffffffffffffffffffffffffffffffff021916908373ffffffffffffffffffffffffffffffffffffffff160217905550600182018160010190805461064790610c86565b6106529291906106ca565b506002820160009054906101000a900463ffffffff168160020160006101000a81548163ffffffff021916908363ffffffff1602179055505050916003019190600301906105c2565b5b5090506106a99190610757565b5090565b5b808211156106c65760008160009055506001016106ae565b5090565b8280546106d690610c86565b90600052602060002090601f0160209004810192826106f85760008555610746565b82601f106107095780548555610746565b8280016001018555821561074657600052602060002091601f016020900482015b8281111561074557825482559160010191906001019061072a565b5b50905061075391906106ad565b5090565b5b808211156107b857600080820160006101000a81549073ffffffffffffffffffffffffffffffffffffffff021916905560018201600061079891906107bc565b6002820160006101000a81549063ffffffff021916905550600301610758565b5090565b5080546107c890610c86565b6000825580601f106107da57506107f9565b601f0160209004906000526020600020908101906107f891906106ad565b5b50565b600061080f61080a84610b61565b610b3c565b90508281526020810184848401111561082757600080fd5b610832848285610c44565b509392505050565b60008135905061084981610d58565b92915050565b600082601f83011261086057600080fd5b81356108708482602086016107fc565b91505092915050565b60008135905061088881610d6f565b92915050565b60008135905061089d81610d86565b92915050565b600080604083850312156108b657600080fd5b60006108c48582860161083a565b925050602083013567ffffffffffffffff8111156108e157600080fd5b6108ed8582860161084f565b9150509250929050565b6000806040838503121561090a57600080fd5b60006109188582860161088e565b925050602061092985828601610879565b9150509250929050565b600061093f8383610a4c565b905092915050565b61095081610bf8565b82525050565b61095f81610bf8565b82525050565b600061097082610ba2565b61097a8185610bc5565b93508360208202850161098c85610b92565b8060005b858110156109c857848403895281516109a98582610933565b94506109b483610bb8565b925060208a01995050600181019050610990565b50829750879550505050505092915050565b60006109e582610bad565b6109ef8185610bd6565b93506109ff818560208601610c53565b610a0881610d47565b840191505092915050565b6000610a1e82610bad565b610a288185610be7565b9350610a38818560208601610c53565b610a4181610d47565b840191505092915050565b6000606083016000830151610a646000860182610947565b5060208301518482036020860152610a7c82826109da565b9150506040830151610a916040860182610a9c565b508091505092915050565b610aa581610c34565b82525050565b610ab481610c34565b82525050565b6000606082019050610acf6000830186610956565b8181036020830152610ae18185610a13565b9050610af06040830184610aab565b949350505050565b60006020820190508181036000830152610b128184610965565b905092915050565b60006020820190508181036000830152610b348184610a13565b905092915050565b6000610b46610b57565b9050610b528282610cb8565b919050565b6000604051905090565b600067ffffffffffffffff821115610b7c57610b7b610d18565b5b610b8582610d47565b9050602081019050919050565b6000819050602082019050919050565b600081519050919050565b600081519050919050565b6000602082019050919050565b600082825260208201905092915050565b600082825260208201905092915050565b600082825260208201905092915050565b6000610c0382610c0a565b9050919050565b600073ffffffffffffffffffffffffffffffffffffffff82169050919050565b6000819050919050565b600063ffffffff82169050919050565b82818337600083830152505050565b60005b83811015610c71578082015181840152602081019050610c56565b83811115610c80576000848401525b50505050565b60006002820490506001821680610c9e57607f821691505b60208210811415610cb257610cb1610ce9565b5b50919050565b610cc182610d47565b810181811067ffffffffffffffff82111715610ce057610cdf610d18565b5b80604052505050565b7f4e487b7100000000000000000000000000000000000000000000000000000000600052602260045260246000fd5b7f4e487b7100000000000000000000000000000000000000000000000000000000600052604160045260246000fd5b6000601f19601f8301169050919050565b610d6181610bf8565b8114610d6c57600080fd5b50565b610d7881610c2a565b8114610d8357600080fd5b50565b610d8f81610c34565b8114610d9a57600080fd5b5056fea26469706673582212205c0e3dbdfbe819475cda799cbf9c5aaabf8b11da7f55283b8dad57ed05f7f27b64736f6c63430008040033436f6e747261746f20696e696369616c697a61646f20636f6d207375636573736f21",
  "linkReferences": {},
  "deployedLinkReferences": {}
}